:100000000C9452000C947A000C947A000C947A00B0
:100010000C947A000C947A000C947A000C947A0078
:100020000C947A000C947A000C947A000C947A0068
:100030000C947A000C947A000C947A000C947A0058
:100040000C947A000C947A000C947A000C947A0048
:100050000C947A000C947A000C947A000C947A0038
:100060000C947A000C947A000C947A000C947A0028
:100070000C947A000C947A000C947A000C947A0018
:100080000C947A000C947A000C947A000C947A0008
:100090000C949B100C9432110C940C110C947A005B
:1000A00082117B1111241FBECFEFCDBFDFE3DEBF76
:1000B0002AE2ACE0B8E201C01D92AE37B207E1F728
:1000C00018E2A0E0B8E2E7E4F6E402C005900D9281
:1000D000AC30B107D9F710E0C1E5D0E004C02197FA
:1000E000FE010E947612C035D107C9F70E94FF10A9
:1000F0000C9476140C9400008B3208F05AC090E0F7
:10010000FC01EE5DFC4740814F3F09F452C0FC0109
:10011000EC52FD47E081EE2329F0E130A1F010F030
:10012000E63018F1FC01E85FFC47E081A0E2EA9FBD
:10013000F0011124FC5F2081242341F16115710538
:10014000F1F446830895E091010ADC01A251BD4714
:100150005C915C5F21E030E001C0220F5A95EAF724
:1001600020952E232093010ADDCF20E1E29FF001AC
:100170001124E05AF54F21812F7E2183D3CF6230A5
:10018000710511F4478308954583089582519D4771
:10019000DC018C91309771F08F3F61F07096E80F21
:1001A000F11D9FB7F8948081672B39F4877F808396
:1001B0009FBF0895F0E0E0E0F4CF8860F8CFCF93E0
:1001C000DF938B32C0F490E0FC01EE5DFC472081B0
:1001D0002F3F89F06330710570F4FC01E85FFC4744
:1001E000A08130E2A39FD0011124BC5F6130710572
:1001F00029F411962C93DF91CF91089582519D4758
:10020000EC01E881EF3F89F0CD014096E80FF92F2E
:10021000F11D9FB7F89412962C938081623071057E
:1002200039F4886080839FBFE6CFF0E0E0E0F1CF53
:10023000877FF8CF909102069F7C90930206909161
:10024000A0009F789093A000803211F0803131F4AB
:1002500090910206892B809302060895853070F4F0
:1002600090910206909302062091A00030E1839FB6
:10027000C0011124822B8093A00008958091020672
:10028000809302068091A000F6CFCF938FB7F894A9
:1002900020916E2A30916F2A4091702A5091712AD4
:1002A000E0EBFAE0C285968190FF06C02F5F3F4FDA
:1002B0004F4F5F4FC091BA0A8FBFA091782AB0917B
:1002C000792A0E94C2114091762A5091772AC49FC0
:1002D0009001C59F300D1124620F731F811D911D68
:1002E000CF9108958F929F92AF92BF92CF92DF925B
:1002F000EF92FF924B015C010E9445016B017C0172
:10030000A8EEB3E0A50194010E94C211C60ED71E4B
:10031000E81EF91EC616D706E806F90638F40E944C
:100320004501C616D706E806F906C8F30E9445013E
:100330006C157D058E059F05C8F3FF90EF90DF904B
:10034000CF90BF90AF909F908F900895CF92DF9203
:10035000EF92FF920F931F93CF93DF938C01DB01FA
:10036000D0E0C0E07A0181E0E81AF108452BA1F065
:10037000F80180819181FC01208131816D01FFEFC5
:10038000CF1ADF0A6C91C801F9010995892B21F078
:100390002196A701D601E6CFCE01DF91CF911F9123
:1003A0000F91FF90EF90DF90CF9008956FEF7FEF68
:1003B00081E090E00E94DD010895019709F0089521
:1003C0006F3F7F4FE1F7EDECF9E21282138288EE86
:1003D00093E0A0E0B0E084839583A683B7838EEB9F
:1003E00092E88083918380E698E08487958788E10E
:1003F000868789E1878780E4808B128A138A148A32
:10040000158A86E2868B178A108E1092662A1092C1
:10041000672AD5CFFC0194898589981720F4891B18
:10042000990B019708952FE330E0291B3109820FC2
:10043000932F911D0895FC0192898389981761F08B
:10044000A389AE0FBF2FB11D59968C9193899F5FE1
:100450009F73938B90E008958FEF9FEF0895FC01B9
:1004600092898389981731F08389E80FF11D818D76
:1004700090E008958FEF9FEF0895FC01228930E00E
:10048000205C3F4F8389A901481B5109CA018F7322
:1004900099270895CF93DF93EC01E881F9810680D5
:1004A000F781E02D0995EC85FD8586818F73868324
:1004B000EC85FD8585818F7585838B898A8B198A6B
:1004C000DF91CF9108958F929F92AF92BF92CF927A
:1004D000DF92EF92FF920F931F93CF93DF93EC0184
:1004E0006A017B01022F8989882339F0E881F9812B
:1004F0000288F389E02DCE0109959889E0EEF5E0B8
:100500008281892B82831FB7F89460E070E281EAD0
:1005100097E0A70196010E94351269017A018FEFD9
:10052000C81AD80AE80AF80AF694E794D794C79448
:10053000EC85FD8586818D7F8683EC85FD858681B2
:100540008683198AA09123110A2E000CBB0BA701E8
:1005500096010E947C124B015C01BB20ECF1D5019D
:10056000C401072E7AE0B595A795979587957A955A
:10057000D1F7702D8C0D9D1DAE1DBF1DEC85FD8529
:1005800080879187EC85FD850783EC85FD858681D5
:10059000806C8683EC85FD858581806885838E856A
:1005A00062E070E00E94DF008F8561E070E00E94F1
:1005B0007C008F8561E070E00E94DF001FBFDF914B
:1005C000CF911F910F91FF90EF90DF90CF90BF9050
:1005D000AF909F908F9008952FEF820E23E0921E90
:1005E000A11CB11CBCCFFC01948985899817D9F056
:1005F000A589AE0FBF2FB11DA75ABF4F2C9185897A
:1006000090E001968F739078858BA485B58580E402
:1006100014968C93A485B58512962C93948985891C
:10062000981741F008950484F585E02D85818F7D2C
:1006300085830895A485B58515968C9115978F7D32
:1006400015968C938789882369F3808D8093130195
:10065000178AE8CF0FB607FC08C0DC011C96ED91A5
:10066000FC91248125FD09C00895DC011C96ED91C3
:10067000FC91258125FFF1CFF7CF0E94F302F4CF43
:100680000F931F93CF93DF93EC0181E0898B9C89BB
:100690008D899817D1F08091110180FF08C0E0E1A9
:1006A000F1E08381888F8E89838381E08F8B062F91
:1006B0008C8990E001968F739078182F8D89811323
:1006C00014C0CE010E942A03F9CFEC85FD858481F8
:1006D00085FFE1CF6283EC85FD8580E48483EC8532
:1006E000FD8585818F7D85830DC0EC89EC0FFD2F05
:1006F000F11DE75AFF4F00831C8BEC85FD8585813A
:100700008062858381E090E0DF91CF911F910F910E
:100710000895CF93DF93FC0121892223C9F0EC01D6
:100720008091110180FF0CC0E0E1F1E08381888FAE
:100730008E89838381E08F8B03C0CE010E942A03C0
:10074000EC85FD85858185FDF8CF848186FFF5CF19
:10075000DF91CF91089581E00895DC01ED91FC9146
:100760000088F189E02D23E030E009950895FF929B
:100770000F931F93CF93DF938C01FF24F394F60E16
:10078000FC0120852F1589F1C185D2852150B9F052
:100790006F3F51F08F2D90E0982F88270197622F9F
:1007A00070E00E940D120DC030E050E040E06FEFAD
:1007B0007FEF80E090E00E945712B90102C070E024
:1007C00060E090E080E0F80144815581841795074E
:1007D00058F4FE013191369FA001379F500D11242E
:1007E00058830196EF01EFCFF086DF91CF911F91F3
:1007F0000F91FF9008958F929F92AF92BF92CF92E8
:10080000DF92EF92FF920F931F93CF93DF93FC0140
:10081000828193816817790708F04AC04A01AA24A7
:10082000BB24D82DC32ED42EE52EFF24CC2D922F01
:100830008085882399F0A82FB0E08A9EE0018B9EE6
:10084000D00D1124CA9E8001CB9E100D1124C12F02
:100850002A9F80012B9F100D1124912FA685B3850F
:10086000AB1799F101851285660F771F660F771F09
:10087000600F711FC52EDD24EE24FF241C2D88235C
:1008800021F08C9D90011124132FA60FB72FB11DBD
:100890001C93A385A60FB72FB11DDC93A485A60FCB
:1008A000B72FB11DCC938585680F711DFB01908317
:1008B000DF91CF911F910F91FF90EF90DF90CF903C
:1008C000BF90AF909F908F900895418552859B0176
:1008D000220F331F620F731F640F751FDACF0F9340
:1008E0001F93CF93DF938C01EB01FC01818188235F
:1008F00021F0868197819923ACF4F801C683D783D0
:100900008181811114C0CB32D105E4F4FE01E85F8E
:10091000FC478081863048F5F0E28F9FC0011124AA
:100920009C5F12C070E060E00E94DF00E6CF61E0F3
:1009300070E08C2F0E94DF0070E060E08C2F0E943E
:100940007C00E1CF90E080E00496F801838B948BEB
:10095000CB32D1056CF4CE5DDC478881F801858B04
:10096000DF91CF911F910F91089590E080E0ECCF3F
:100970008FEFF4CFCF92DF92EF92FF920F931F93FE
:10098000CF93DF93CDB7DEB72997CDBFDEBF8C0104
:10099000DC0119968D919C91892B79F471C0F80135
:1009A000C784D088E188F2886C197D098E099F0977
:1009B0006C3271408105910588F40E944501F8016F
:1009C000C784D088E188F2886C157D058E059F0567
:1009D00030F76787708B818B928BE1CFF894D801C9
:1009E00014968D919C91159789839A831996ED9110
:1009F000FC91DF01119680818B83F801808188232F
:100A000009F44AC0E388F488F7019081F8018589E8
:100A1000982B9C83F7019081809589238D838D810C
:100A2000898788E088875C816D814B81388529853D
:100A300089819A81508347FD252F3A952083262F5F
:100A400039F0441F00C000006083000000C0F2CFF6
:100A500038E04D9160830000019761F7D80153960B
:100A6000ED93FC9354974B833887298789839A8326
:100A700078940E944501F8016787708B818B928B77
:100A80002996CDBFDEBFDF91CF911F910F91FF90CF
:100A9000EF90DF90CF900895E388F488F70190817C
:100AA000F8018589982B9C83F70190818095892393
:100AB0008D838D818F8388E08E835C816D814B81F6
:100AC0003E812F8189819A81508347FD252F00C067
:100AD00000C0208300C000C000C000C000C0608310
:100AE0000000262F3A9541F0441F000000C000C0CE
:100AF00000C000C000C0E8CF38E04D9100C0608366
:100B000000C0019709F7D8015396ED93FC935497D1
:100B10004B833E832F8389839A83AACFCF93DF931E
:100B2000FC012681378133232CF4118280E0DF9190
:100B3000CF910895EC0161E070E0822F0E94DF0008
:100B400070E060E08E810E947C0081E08983EFCFBD
:100B50006FEF7FEF81E090E00E946C100895CF92DC
:100B6000DF92EF92FF920F931F93CF93DF930F2E9D
:100B7000F1EFCF2EDD24DA94F02D6CC0F701EE0FEB
:100B8000FF1FEE0FFF1FEE0FFF1FEE19FF09EC0F07
:100B9000FD1FEE0FFF1FEE0FFF1FEE5BF2482081DF
:100BA00031814281538119C0F701EE0FFF1FEE0F13
:100BB000FF1FEE0FFF1FEE19FF09EC0FFD1FEE0FD9
:100BC000FF1FEE0FFF1FE653F8482081318142815D
:100BD000538103C020E030E0A901B801660F771F00
:100BE000660F771F660F771F601B710B6C0F7D1FE1
:100BF00087EB99E20E94FB032196C730D10594F45C
:100C000082E3E816F10430F78091002890910128E2
:100C10008A30910509F4B2CF0B9731F220E030E031
:100C2000A901DBCF0F5F1F4F0F30110534F47601A0
:100C3000E00EF11ED0E0C0E0E0CF87EB99E20E9429
:100C4000BA0460E570E080E090E00E9472018FEFEE
:100C5000C81AD80A83E3C816D1041CF410E000E0D7
:100C6000E3CFDF91CF911F910F91FF90EF90DF9035
:100C7000CF900895CF93DF93D0E0C0E0C936D1057F
:100C8000A4F420E030E0A901BE0187EB99E20E94C4
:100C9000FB0364E670E080E090E00E94720187EB65
:100CA00099E20E94BA042196E9CFDF91CF9108958D
:100CB000CF93DF93D0E0C0E0C936D1059CF4FE01AC
:100CC000EE0FFF1FEE0FFF1FE35FF74D2081318115
:100CD000428153815527BE0187EB99E20E94FB03B5
:100CE0002196EACF87EB99E20E94BA04DF91CF9177
:100CF00008950895A0EEB5E081E014968C931497C2
:100D0000E0E0FAE083E081838FEF90E086A397A391
:100D100080E890E080AF91AF82AF93AF84AF95AFA2
:100D20008BE0808315968C911597816015968C9336
:100D3000159715968C911597826015968C93E0E81F
:100D4000FAE087E081838FEF848780E8858785E0FC
:100D500080837096E13B8AE0F80798F3089588ED68
:100D600090E084BF9093610080E094E2A4EFB0E053
:100D70008093022890930328A0930428B093052819
:100D8000E0E0F6E0828186608283808181608083FA
:100D900080E10E941A011092E2050E947A06609199
:100DA000022870910328809104289091052820E45E
:100DB00032E44FE050E00E9435124427552760E0AE
:100DC00070E480E090E00E9435122093782A3093FE
:100DD000792A2091782A3091792AA1E8B0E80E94F6
:100DE000FE11880F892F881F990B91958093762A81
:100DF0009093772A2091782A3091792A36952795F1
:100E00003695279536952795A5ECB0E20E94FE1100
:100E1000929582958F7089279F7089278093742A75
:100E20009093752A4091782A5091792A9A013695A3
:100E3000279536952795369527950E94FE11929510
:100E400082958F7089279F70892768EE73E0869F4F
:100E50009001879F300D969F300D1124CA01821B8F
:100E6000930B8093722A9093732AE0EBFAE08FEF52
:100E700090E08487958785818160858384E0808385
:100E800080818160808378940895FC0180819181C4
:100E9000009719F00E948611089560E070E0CB0180
:100EA0000895DC01ED91FC910280F381E02D42E098
:100EB00050E06CE373E8099508956115710581F0C0
:100EC000FB0101900020E9F73197AF01461B570B5A
:100ED000DC01ED91FC910280F381E02D09950895EC
:100EE00090E080E008950F931F93CF93DF93EC0180
:100EF0000E945D078C01CE010E945107800F911F57
:100F0000DF91CF911F910F910895E091CD29F0913C
:100F1000CE290088F189E02D23E030E040E052EC5A
:100F200061E070E08DEC99E2099587EB99E20E940F
:100F30008E056EE187EB99E20E94B7036FE373E8D9
:100F40008DEC99E20E94730768E473E88DEC99E2F6
:100F50000E94730763E673E88DEC99E20E947307C1
:100F60006FE673E88DEC99E20E9473076CE773E813
:100F70008DEC99E20E94730768E873E88DEC99E2C2
:100F80000E94730765E973E88DEC99E20E9473078C
:100F900066EA73E88DEC99E20E94730769EB73E8E7
:100FA0008DEC99E20E9473076AEC73E88DEC99E28C
:100FB0000E94730769ED73E88DEC99E20E94730754
:100FC00066EE73E88DEC99E20E94730766E074E8C0
:100FD0008DEC99E20E94730784EA91E0E6E2F6E77D
:100FE000ADE0B8E201900D920197E1F708950F93FB
:100FF0001F93CF93DF93EC018B016F5F7F4F88814D
:1010000099810E94A913009751F0888399830A83DC
:101010001B8381E0DF91CF911F910F91089580E0B4
:10102000F9CFCF93DF93EC0128813981232B29F06D
:101030002A813B812617370768F4CE010E94F70703
:10104000882349F02C813D81232B29F4E881F98103
:10105000108201C081E0DF91CF910895AF92BF92DD
:10106000CF92DF92EF92FF921F93CF93DF93FC0119
:10107000C481D581C40FD51F6115710561F141157A
:10108000510561F411E0812FDF91CF911F91FF9005
:10109000EF90DF90CF90BF90AF9008955A016B0111
:1010A0007C01BE010E941108182F882361F3F7010B
:1010B0002081318184819581A501B601820F931F22
:1010C0000E946614F701C483D58380819181C80F83
:1010D000D91F1882D8CF10E0D6CFCF93DF931F92BD
:1010E000CDB7DEB7698341E050E0BE016F5F7F4F4F
:1010F0000E942E080F90DF91CF910895CF93DF9338
:10110000EC0188819981009711F00E9420131882C8
:1011100019821C821D821A821B82DF91CF91089551
:10112000EF92FF920F931F93CF93DF93EC017B011C
:101130008A01BA010E9411088823B9F00C831D832B
:10114000A801B701888199810E946614E881F9811C
:101150008C819D81E80FF91F1082CE01DF91CF9124
:101160001F910F91FF90EF900895CE010E947E088D
:10117000F4CFCF93DF93EC016115710571F0FB01A2
:1011800001900020E9F73197AF01461B570B0E94F1
:101190009008CE01DF91CF9108950E947E08F9CF8B
:1011A000FC01108211821282138214821582611551
:1011B000710551F0FB0101900020E9F73197AF0173
:1011C000461B570B0E9490080895FC018081918175
:1011D000009711F00E94201308952F923F924F9292
:1011E0005F926F927F928F929F92AF92BF92CF92B7
:1011F000DF92EF92FF920F931F93CF93DF93CDB7C0
:10120000DEB72697CDBFDEBF84EA91E0E6E2F6E7DF
:10121000ADE0B8E201900D920197E1F70E94580607
:1012200068EE73E080E090E00E94720162E274E890
:101230008DEC99E20E9473076EE373E8CE0101968C
:101240000E94D00823C0E0930028F0930128CE012B
:1012500001960E94E5082696CDBFDEBFDF91CF91B3
:101260001F910F91FF90EF90DF90CF90BF90AF90C4
:101270009F908F907F906F905F904F903F902F90B6
:101280000895682FCE0101960E946D088DEC99E2B9
:101290000E943D02892BD1F38DEC99E20E941B0242
:1012A0008A3079F7CE0101960E9445078B01FB0138
:1012B000CB010A978B35910538F4C8016AE070E0DC
:1012C0000E942112892B99F0015011090830110553
:1012D00008F4B9CF60E474E88DEC99E20E947307DA
:1012E0006EE373E8CE0101960E94B908CFCFC80122
:1012F0006AE070E00E9421126B0181E0C81AD108F7
:101300002FC280E090E0AFEFB0E080938928909307
:101310008A28A0938B28B0938C2880936D28909373
:101320006E28A0936F28B0937028109259281092BD
:101330005A2810925B2810925C281092552810921F
:1013400056281092572810925828412C512C3201BF
:101350006A94EDE4F9E24082518262827382E1E3B1
:10136000F9E240825182628273820DE119E2F80152
:1013700010821182128213820F2EF9E18F2EF9E270
:101380009F2EF02DF40110821182128213820E948E
:10139000580668EE73E080E090E00E947201F80168
:1013A0004082518262827382F40140825182628261
:1013B00073820E94580668EE73E080E090E00E941D
:1013C00072010F2EF9E52F2EF9E23F2EF02DF101DB
:1013D0001082118212821382EDE4F9E210821182EE
:1013E00012821382EDE3F9E21082118212821382DB
:1013F000E1E3F9E210821182128213820F2EF1E2F0
:10140000AF2EF9E2BF2EF02DF5011082118212826B
:101410001382F8011082118212821382F401108269
:10142000118212821382E5E1F9E2108211821282A6
:101430001382E1E1F9E21082118212821382EDE05F
:10144000F9E210821182128213820E94580668EE1D
:1014500073E080E090E00E947201F10140825182CD
:1014600062827382EDE4F9E2408251826282738289
:10147000EDE3F9E24082518262827382E1E3F9E2B4
:101480004082518262827382F5014082518262827F
:101490007382F8014082518262827382F401408239
:1014A000518262827382E5E1F9E240825182628276
:1014B0007382E1E1F9E24082518262827382EDE05F
:1014C000F9E24082518262827382E5E6F9E210829B
:1014D0001182128213820F2EF1E6EF2EF9E2FF2E17
:1014E000F02DF70110821182128213820E94580699
:1014F00068EE73E080E090E00E947201F8011082D3
:10150000118212821382F4011082118212821382DC
:101510000E94580668EE73E080E090E00E9472013D
:10152000F1011082118212821382E1E4F9E2108249
:10153000118212821382EDE3F9E21082118212828B
:101540001382E5E2F9E21082118212821382F50120
:101550001082118212821382E5E6F9E24082518202
:1015600062827382F70140825182628273820E949A
:10157000580668EE73E080E090E00E947201F1018D
:101580004082518262827382E1E4F9E240825182B8
:1015900062827382EDE3F9E2408251826282738259
:1015A000E5E2F9E24082518262827382F501408273
:1015B000518262827382E1E1F9E210821182128229
:1015C0001382EDE0F9E210821182128213820E94EE
:1015D000580668EE73E080E090E00E947201F80126
:1015E0004082518262827382F4014082518262821F
:1015F0007382E1E7F9E210821182128213820F2EC8
:10160000FDE6EF2EF9E2FF2EF02DF7011082118298
:10161000128213820E94580668EE73E080E090E028
:101620000E947201E1E7F9E2408251826282738294
:10163000F7014082518262827382F101108211822D
:1016400012821382EDE4F9E2108211821282138277
:10165000E1E4F9E21082118212821382EDE3F9E2F1
:101660001082118212821382E1E3F9E21082118268
:1016700012821382E5E2F9E2108211821282138251
:10168000F5011082118212821382F80110821182F8
:1016900012821382F4011082118212821382E5E118
:1016A000F9E210821182128213820F2EF9E0EF2EDE
:1016B000F9E2FF2EF02DF7011082118212821382BF
:1016C0000E94580668EE73E080E090E00E9472018C
:1016D000F1014082518262827382E1E4F9E2408248
:1016E000518262827382EDE3F9E24082518262822A
:1016F0007382E5E2F9E24082518262827382F501EF
:101700004082518262827382F801408251826282F9
:101710007382F4014082518262827382E5E1F9E2D0
:101720004082518262827382E1E1F9E24082518219
:1017300062827382EDE0F9E24082518262827382BA
:10174000F70140825182628273820E94580668EEDD
:1017500073E080E090E00E947201F1E0CF1AD108BE
:10176000DD200CF4D7C184EA91E0E6E2F6E7ADE0D3
:10177000B8E201900D920197E1F7F6013197E93057
:10178000F10508F0E2CDE953F44F0C947612370DD1
:10179000020DCD0C800C4B0C260CE50BD00B8109F7
:1017A00080E090E0AFEFB0E08093892890938A28A2
:1017B000A0938B28B0938C2880936D2890936E28EB
:1017C000A0936F28B0937028C0CD109295281092E6
:1017D00096281092972810929828109279281092A3
:1017E0007A2810927B2810927C2810925D28109203
:1017F0005E2810925F28109260281092592810924B
:101800005A2810925B2810925C281092552810924A
:10181000562810925728109258281092512810924A
:101820005228109253281092542810924D2810924A
:101830004E2810924F28109250281092492810924A
:101840004A2810924B2810924C287FCD80E090E0DF
:10185000AFEFB0E08093892890938A28A0938B28DB
:10186000B0938C2880936D2890936E28A0936F2856
:10187000B09370281092A1281092A2281092A32849
:101880001092A42810929D2810929E2810929F28B2
:101890001092A0285ACD80E090E0AFEFB0E08093A6
:1018A000892890938A28A0938B28B0938C288093C2
:1018B0006D2890936E28A0936F28B0937028109293
:1018C000A1281092A2281092A3281092A428109266
:1018D0009D2810929E2810929F281092A028109266
:1018E000592810925A2810925B2810925C28109266
:1018F000552810925628109257281092582825CD16
:1019000080E090E0AFEFB0E08093892890938A2840
:10191000A0938B28B0938C2880936D2890936E2889
:10192000A0936F28B0937028109295281092962853
:10193000109297281092982810927D2810927E2855
:1019400010927F28109280281092792810927A287D
:1019500010927B2810927C281092612810926228A5
:10196000109263281092642810925D2810925E28CD
:1019700010925F28109260281092592810925A28CD
:1019800010925B2810925C281092552810925628CD
:101990001092572810925828D8CC80E090E0AFEFF2
:1019A000B0E08093892890938A28A0938B28B093E5
:1019B0008C2880936D2890936E28A0936F28B09305
:1019C00070281092592810925A2810925B28109271
:1019D0005C28109255281092562810925728109281
:1019E000582810924D2810924E2810924F2810928D
:1019F00050281092492810924A2810924B28109291
:101A00004C28A3CC80E090E0AFEFB0E08093892831
:101A100090938A28A0938B28B0938C2880936D286C
:101A200090936E28A0936F28B09370281092AD28E1
:101A30001092AE281092AF281092B0281092A928C8
:101A40001092AA281092AB281092AC2810924D2820
:101A500010924E2810924F28109250281092492828
:101A600010924A2810924B2810924C286ECCEDE030
:101A7000F8E21092952810929628109297281092CA
:101A8000982810927D2810927E2810927F2810921C
:101A900080281092792810927A2810927B28109230
:101AA0007C2810926128109262281092632810926C
:101AB000642810925D2810925E2810925F28109280
:101AC00060281092592810925A2810925B28109280
:101AD0005C28109255281092562810925728109280
:101AE0005828109251281092522810925328109280
:101AF000542810924D2810924E2810924F28109280
:101B0000502814AE15AE16AE17AE10AE11AE12AE12
:101B100013AE1BCC83E090E08093002890930128C3
:101B2000CE0101960E94E50896CBCF93DF938DEC12
:101B300099E20E943D02EC01892B09F434C18DEC3D
:101B400099E20E941B028A3031F0682F81EB99E202
:101B50000E946D08ECCF81EB99E20E944507EB01F2
:101B60006EE373E881EB99E20E94B908209709F4CB
:101B70007AC0C130D10509F481C0C230D10509F461
:101B80008AC0C330D10509F493C0C430D10509F42B
:101B90009CC0C530D10509F4A5C0C630D10509F4F3
:101BA000AEC0C730D10509F4B7C0C830D10509F4BB
:101BB000C0C0C930D10509F4C9C0CA30D10509F483
:101BC000D4C02B9709F4E0C06DE675E88DEC99E27E
:101BD0000E94730767E975E88DEC99E20E9473072C
:101BE0006EEA75E88DEC99E20E94730769EB75E87F
:101BF0008DEC99E20E94730765EC75E88DEC99E233
:101C00000E94730760ED75E88DEC99E20E947307FE
:101C10006CED75E88DEC99E20E9473076CEE75E847
:101C20008DEC99E20E9473076EEF75E88DEC99E2F6
:101C30000E9473076EE076E88DEC99E20E947307CC
:101C40006CE176E88DEC99E20E94730768E276E831
:101C50008DEC99E20E94730766E074E88DEC99E2DE
:101C60000E94730764CF10920028109201286FE43D
:101C700074E88DEC99E20E94730759CF81E090E0FF
:101C8000809300289093012862E674E88DEC99E235
:101C90000E9473074CCF82E090E0809300289093DD
:101CA000012866E774E88DEC99E20E9473073FCF44
:101CB00083E090E080930028909301286BE874E81B
:101CC0008DEC99E20E94730732CF84E090E080931C
:101CD0000028909301286FE974E88DEC99E20E9446
:101CE000730725CF85E090E080930028909301282A
:101CF00064EB74E88DEC99E20E94730718CF86E0DC
:101D000090E080930028909301286DEC74E88DECAE
:101D100099E20E9473070BCF87E090E08093002840
:101D2000909301286AEE74E88DEC99E20E947307A3
:101D3000FECE88E090E0809300289093012863E035
:101D400075E88DEC99E20E947307F1CE89E090E08E
:101D500080930028909301286AE175E88DEC99E260
:101D60000E9473070E94ED08E2CE8AE090E0809323
:101D70000028909301286AE275E88DEC99E20E94B0
:101D800073070E94AF05D3CE8BE090E080930028CC
:101D9000909301286FE475E88DEC99E20E94730737
:101DA0000E94AF05C4CE8091002890910128892B14
:101DB000F9F40E943A0687EB99E20E94BA0462E3C2
:101DC00070E080E090E00E947201DAC0FE01EE0F48
:101DD000FF1FEE0FFF1FEE57FB482081318142812C
:101DE00053815527BE0187EB99E20E94FB032196A0
:101DF000C936D1050CF0BAC0809100289091012815
:101E00008130910519F38230910531F183309105CC
:101E100079F18430910509F447C08530910509F4C2
:101E20004FC08630910509F457C08730910509F4F9
:101E30005FC08830910509F467C08930910509F4C5
:101E40006FC08A30910509F477C00B9709F481C0FF
:101E500020E030E0A901C5CFFE01EE0FFF1FEE0F1D
:101E6000FF1FE252FD482081318142815381B9CF69
:101E700080910C288823A1F0FE01EE0FFF1FEE0FCA
:101E8000FF1FE65CFE482081318142815381C836C4
:101E9000D10509F0A6CF91E0892780930C28A1CF26
:101EA00020E030E0A901F3CFFE01EE0FFF1FEE0F9F
:101EB000FF1FEA56F049208131814281538191CF41
:101EC000FE01EE0FFF1FEE0FFF1FEE50F2492081C3
:101ED00031814281538185CFFE01EE0FFF1FEE0F4E
:101EE000FF1FE25BF349208131814281538179CF29
:101EF000FE01EE0FFF1FEE0FFF1FE655F549208193
:101F00003181428153816DCFFE01EE0FFF1FEE0F35
:101F1000FF1FEA5FF649208131814281538161CF01
:101F2000FE01EE0FFF1FEE0FFF1FE35FF74D208155
:101F300031814281538155CF0E94AF0587EB99E2F1
:101F40000E94BA0462E370E080E090E00E947201B7
:101F500017C00E94AF0587EB99E20E94BA0462E3C2
:101F600070E080E090E00E9472010AC087EB99E285
:101F70000E94BA0468EE73E080E090E00E94720173
:101F8000DF91CF910895CF93DF93EC0189859A85F6
:101F90000E9420138E819F81992324F070E060E0DD
:101FA0000E94DF00DF91CF910895EF92FF920F938F
:101FB0001F93CF93DF93EC017B0189859A850E9463
:101FC00020139E858B859817E9F084E090E08E9D24
:101FD00080018F9D100D9E9D100D11240C831D837B
:101FE000C8010E94841289879A87009771F41C8225
:101FF0001D821A821B82DF91CF911F910F91FF905A
:10200000EF90089583E090E0E2CFA80170E060E0F7
:102010000E946F14EA82FB82EECFFC0196858385D5
:1020200031E0981330E0CB010024880F991F001C89
:10203000880F991F001C892F902D282F2370268729
:10204000CB01929582958F7089279F708927837025
:102050008387AB01569547955695479543704487BE
:10206000962F9370958791E06F3F710511F008F0FE
:1020700090E0908341855285452B51F091E02813E3
:1020800090E0391729F0CF01628173810E94D50F4A
:102090000895EF92FF920F931F93CF93DF93EC017C
:1020A0007B018A011982188619861A861F86188A6A
:1020B000198A1A8AB9010E940D10B701CE010E9437
:1020C000D50FB801CE010E946F04DF91CF911F910F
:1020D0000F91FF90EF9008950F931F93CF93DF938D
:1020E000EC018B01019751F0CD2B19F40F3F1F4FDD
:1020F000C9F0DF91CF911F910F9108956F3F7F4FEE
:1021000099F722E530E046E050E069E670E087EBC1
:1021100099E20E9449106EE373E881EB99E20E9414
:10212000D008E2CF81EB99E20E94E50887EB99E2C3
:102130000E94C30FDECF1F920F920FB60F92112491
:102140002F933F934F935F936F937F938F939F93BF
:10215000AF93BF9340916A2A50916B2A60916C2A89
:1021600070916D2A8091682A9091692A2091742A31
:102170003091752A420F531F611D711D2091722AE3
:102180003091732A820F931F883E23E0920730F02C
:10219000885E93404F5F5F4F6F4F7F4F8093682AF9
:1021A0009093692A40936A2A50936B2A60936C2A11
:1021B00070936D2A80916E2A90916F2AA091702A57
:1021C000B091712A0196A11DB11D80936E2A909342
:1021D0006F2AA093702AB093712A81E08093B60A87
:1021E000BF91AF919F918F917F916F915F914F912F
:1021F0003F912F910F900FBE0F901F9018950E9446
:10220000AF060E9485070E94950D80E090E0892B23
:10221000D1F30E940000F7CF1F920F920FB60F92DA
:1022200011242F933F934F935F936F937F938F93DB
:102230009F93AF93BF93EF93FF938DEC99E20E942E
:10224000F302FF91EF91BF91AF919F918F917F9199
:102250006F915F914F913F912F910F900FBE0F9013
:102260001F9018951F920F920FB60F9211242F9363
:102270003F934F935F936F937F938F939F93AF930E
:10228000BF93EF93FF93E091D929F091DA298181EF
:1022900081FD1FC06081EDECF9E282898F5F8F7351
:1022A0009389891741F0DF01E289F0E0E353F64DAD
:1022B000618F52968C938091662A9091672A00973D
:1022C00049F0DC01ED91FC910190F081E02D099540
:1022D00001C08081FF91EF91BF91AF919F918F914C
:1022E0007F916F915F914F913F912F910F900FBE12
:1022F0000F901F9018956FEF7FEF90E080E00E94A5
:102300006C1008950E94D6010C94A8051F93FC013F
:1023100099278827BC01E89411911032E9F319300C
:1023200010F01E30C8F31B3251F01D3249F468948E
:1023300006C00E94AD11610F711D811D911D11918B
:1023400010531A30B0F33EF49095809570956195D6
:102350007F4F8F4F9F4F1F910895592F482F372F31
:10236000262F660F771F881F991F660F771F881FFC
:10237000991F620F731F841F951F660F771F881F99
:10238000991F08950E94FE11A59F900DB49F900D76
:10239000A49F800D911D112408952F923F924F927A
:1023A0005F926F927F928F929F92AF92BF92CF92E5
:1023B000DF92EF92FF920F931F93CF93DF93CDB7EE
:1023C000DEB7CA1BDB0BCDBFDEBF09942A88398874
:1023D00048885F846E847D848C849B84AA84B984BD
:1023E000C884DF80EE80FD800C811B81AA81B981C9
:1023F000CE0FD11DCDBFDEBFED010895A29FB0016C
:10240000B39FC001A39F700D811D1124911DB29F28
:10241000700D811D1124911D0895AA1BBB1B51E154
:1024200007C0AA1FBB1FA617B70710F0A61BB70B44
:10243000881F991F5A95A9F780959095BC01CD01E9
:10244000089597FB072E16F4009407D077FD09D066
:102450000E940D1207FC05D03EF4909581959F4F88
:102460000895709561957F4F0895A1E21A2EAA1BD9
:10247000BB1BFD010DC0AA1FBB1FEE1FFF1FA21734
:10248000B307E407F50720F0A21BB30BE40BF50B31
:10249000661F771F881F991F1A9469F760957095BA
:1024A000809590959B01AC01BD01CF010895052E4B
:1024B00097FB1EF400940E946E1257FD07D00E94F5
:1024C000351207FC03D04EF40C946E1250954095D3
:1024D000309521953F4F4F4F5F4F089590958095D0
:1024E000709561957F4F8F4F9F4F0895EE0FFF1F9F
:1024F0000590F491E02D0994B7FF0C94C2110E944D
:10250000C211821B930B08950F931F93CF93DF93F8
:102510008230910510F482E090E0E0917C2AF09105
:102520007D2A30E020E0B0E0A0E0309799F421155A
:10253000310509F44AC0281B390B24303105D8F580
:102540008A819B816115710589F1FB0182839383E7
:10255000FE0111C040815181028113814817590742
:10256000E0F04817590799F4109761F012960C9310
:10257000129713961C933296CF01DF91CF911F9142
:102580000F91089500937C2A10937D2AF4CF211592
:10259000310551F04217530738F0A901DB019A01C8
:1025A000BD01DF01F801C1CFEF01F9CF80937C2A93
:1025B00090937D2ACDCFFE01E20FF31F819391937B
:1025C0002250310928833983D7CF20917A2A30913C
:1025D0007B2A232B41F4209108283091092820934D
:1025E0007A2A30937B2A20910628309107282115DA
:1025F000310541F42DB73EB740910A2850910B2880
:10260000241B350BE0917A2AF0917B2AE217F3071D
:10261000A0F42E1B3F0B2817390778F0AC014E5F52
:102620005F4F2417350748F04E0F5F1F40937A2AFB
:1026300050937B2A819391939FCFF0E0E0E09CCF71
:10264000CF93DF930097E9F0FC0132971282138257
:10265000A0917C2AB0917D2AED0130E020E0109716
:10266000A1F420813181820F931F20917A2A309129
:102670007B2A2817390709F061C0E0937A2AF09382
:102680007B2ADF91CF910895EA01CE17DF07E8F5A5
:102690004A815B819E0141155105B1F7E901EA8349
:1026A000FB8349915991C40FD51FEC17FD0761F4C5
:1026B000808191810296840F951FE9018883998317
:1026C000828193818A839B83F0E0E0E012968D9172
:1026D0009C9113970097B9F52D913C911197CD01DD
:1026E0000296820F931F20917A2A30917B2A281715
:1026F000390739F6309751F510927C2A10927D2ACD
:10270000A0937A2AB0937B2ABCCFC283D383408123
:102710005181840F951FC817D90761F44E5F5F4F31
:1027200088819981480F591F408351838A819B81F9
:10273000828393832115310509F0B0CFE0937C2A81
:10274000F0937D2A9ECFFD01DC01C0CF128213825F
:10275000D7CFB0E0A0E0EFEAF3E10C94CF118C0109
:10276000009751F4CB010E9484128C01C801CDB7AF
:10277000DEB7E0E10C94E811FC01E60FF71F9C01C5
:1027800022503109E217F30708F49DC0D901CD9119
:10279000DC911197C617D70798F0C530D10530F3F3
:1027A000CE0104978617970708F3C61BD70B22970D
:1027B000C193D1936D937C93CF010E942013D6CF08
:1027C0005B01AC1ABD0A4C018C0E9D1EA0917C2AA7
:1027D000B0917D2A512C412CF12CE12C109731F530
:1027E00080917A2A90917B2A8815990509F05CC01E
:1027F0004616570608F058C0809106289091072881
:10280000009741F48DB79EB740910A2850910B284C
:10281000841B950BE817F90708F055C0E0937A2A56
:10282000F0937B2AF90160837183A0CF8D919C91F5
:10283000119712966C90129713967C901397A81587
:10284000B90559F56C0142E0C40ED11CCA14DB0471
:1028500020F1AC014A195B09DA011296159780F054
:102860006282738240835183D9016D937C93E1141A
:10287000F10471F0D7011296ED93FC93139776CF84
:1028800022968C0F9D1FF90180839183F301EFCF76
:10289000E0937C2AF0937D2A69CF4816590608F404
:1028A0002C017D01D3019ACFCB010E9484127C01BF
:1028B000009749F0AE01B8010E946614C8010E9459
:1028C0002013870153CF10E000E050CFFB01DC0163
:1028D00002C001900D9241505040D8F70895DC019C
:1028E00001C06D9341505040E0F7089510E0C1E5FC
:1028F000D0E004C0FE010E9476122196C235D107B5
:06290000C9F7F894FFCFB7
:102906006ED52D0068D128006ED52D006ED52D0010
:102916006ED52D0059DB2B0061D52D001F210B0034
:10292600191F11000F180A000F180A00191F1100AD
:102936000119090001190900153F000064CA2900A0
:1029460064CA290068D128005DD5260059DB2B0012
:102956001B5B0B00153F000069D72D000D380200E8
:102966005CDF20005BDD2D005DDF2F001B5B0B00B5
:102976001B47000069D72D000D3802005CDF2000E0
:102986005DDF2F0059DB2B001D5D0D001C4B000089
:1029960069D72D00366B170069DC250061DB2D0039
:1029A6005BDD2D001B5B0B001C4B000069D72D0067
:1029B6005BDD2D005BDD2D005BDD2D005BDD2D007D
:1029C6001B5B0B001C4B000069D72D005BDD2D0047
:1029D6005BDD2D0061DB2D005BDD2D001D5D0D0037
:1029E6001B47000069D72D005BD92D0067D92D0044
:1029F60067D92D0059DB2B001D5D0D00153F00002A
:102A060069D72D000D3802005AD81F005DDF2F0050
:102A16005BDD2D001D5D0D000D3802001144020026
:102A2600191F11000D2509005BD92D005BDD2D0056
:102A36001B5B0B001B4700005BDB2D000F2E070006
:102A460069DC250061DB2D005BDD2D001B5B0B00C7
:102A5600113F01005AD81F005AD81F0061DB2D0014
:102A660062D32E0061D52D001C5F0A0019270000D5
:102A76001F210B001620020019270000192700004D
:102A8600162002001620020067D92D0069D72D00F6
:102A960067D92D0067D92D006FE135005DDF2F0066
:102AA60067D92D00000000000000000000000000B3
:102AB6000000000000000000000000000000000010
:102AC6000000000000000000000000000000000000
:102AD60000000000000000000000000000000000F0
:102AE6004E4E4E004E4E4E004E4E4E004E4E4E0038
:102AF6004E4E4E0000000000000000004E4E4E00FC
:102B06004E4E4E004E4E4E004E4E4E004E4E4E0017
:102B1600000000004E4E4E004E4E4E0000000000DB
:102B26004E4E4E00000000004E4E4E004E4E4E00E1
:102B36004E4E4E004E4E4E00000000004E4E4E00D1
:102B4600000000004E4E4E004E4E4E004E4E4E00C1
:102B56004E4E4E004E4E4E004E4E4E004E4E4E00C7
:102B66004E4E4E004E4E4E004E4E4E0000000000A1
:102B7600000000000000000000000000000000004F
:102B86004E4E4E004E4E4E00000000004E4E4E0081
:102B96004E4E4E004E4E4E00000000004E4E4E0071
:102BA6004E4E4E004E4E4E00000000004E4E4E0061
:102BB600000000004E4E4E004E4E4E004E4E4E0051
:102BC6004E4E4E004E4E4E004E4E4E004E4E4E0057
:102BD6004E4E4E004E4E4E00000000004E4E4E0031
:102BE6004E4E4E004E4E4E004E4E4E004E4E4E0037
:102BF6000000000000000000000000004E4E4E00E5
:102C06004E4E4E004E4E4E000000000000000000EA
:102C160000000000000000000000000000000000AE
:102C2600000000000000000000000000000000009E
:102C3600000000000000000000000000000000008E
:102C46000000000000000000FFFFFF00FFFFFF0084
:102C5600FFFFFF0000000000FFFFFF00FFFFFF0077
:102C6600FFFFFF00FFFFFF00FFFFFF00FFFFFF006A
:102C760000000000FFFFFF00FFFFFF00FFFFFF0057
:102C8600FFFFFF00FFFFFF00000000000000000044
:102C960000000000FFFFFF00FFFFFF00FFFFFF0037
:102CA600FFFFFF000000FF000000FF000000FF0024
:102CB600FFFFFF00FFFFFF00FFFFFF000000000017
:102CC600FFFFFF000000FF000000FF000000000003
:102CD600FFFFFF00FFFFFF000000FF00FFFFFF00F8
:102CE600FFFFFF000000FF000000FF00FFFFFF00E6
:102CF600000000000000FF00FFFFFF00FFFFFF00D5
:102D06000000FF000000FF000000000000000000BF
:102D16000000FF00FFFFFF00FFFFFF004B4BFF001F
:102D26000000FF0000000000000000000000FF009F
:102D36000000FF00FFFFFF00FFFFFF000000FF0095
:102D460000000000FFFFFF000000FF000000FF0082
:102D5600FFFFFF00FFFFFF000000FF00FFFFFF0077
:102D6600FFFFFF00000000000000FF000000FF0062
:102D7600FFFFFF0000000000FFFFFF00FFFFFF0056
:102D8600FFFFFF000000FF000000FF000000FF0043
:102D9600FFFFFF00FFFFFF00FFFFFF00FFFFFF0039
:102DA600000000000000000000000000FFFFFF0020
:102DB600FFFFFF00FFFFFF00FFFFFF00FFFFFF0019
:102DC60000000000FFFFFF00FFFFFF00FFFFFF0006
:102DD600FFFFFF00FFFFFF00FFFFFF0000000000F6
:102DE600FFFFFF00FFFFFF00FFFFFF00001DFF00CA
:102DF600001DFF00001DFF0000000000FFC50000D1
:102E0600FFC50000FFC50000001DFF00001DFF00FC
:102E1600001DFF0000000000FFC50000FFC5000008
:102E2600FFC50000001DFF00001DFF00001DFF0084
:102E360000000000FFC50000FFC50000FFC5000040
:102E4600001DFF00001DFF00001DFF000000000028
:102E5600FFC50000FFC50000FFC50000001DFF0004
:102E6600001DFF00001DFF0000000000FFC5000060
:102E7600FFC50000FFC50000001DFF00001DFF008C
:102E8600001DFF0000000000FFC50000FFC5000098
:102E9600FFC50000001DFF00001DFF00001DFF0014
:102EA60000000000FFC50000FFC50000FFC50000D0
:102EB600000000000000000000000000000000000C
:102EC60000000000000000000000000000F17B0090
:102ED60000F17B0000F17B000000000000EFFF0026
:102EE60000EFFF0000EFFF0000F17B0000F17B0028
:102EF60000F17B000000000000EFFF0000EFFF0084
:102F060000EFFF0000F17B0000F17B0000F17B0089
:102F16000000000000EFFF0000EFFF0000EFFF00E1
:102F260000F17B0000F17B0000F17B000000000057
:102F360000EFFF0000EFFF0000EFFF0000F17B0055
:102F460000F17B0000F17B000000000000EFFF00B5
:102F560000EFFF0000EFFF0000F17B0000F17B00B7
:102F660000F17B000000000000EFFF0000EFFF0013
:102F760000EFFF0000F17B0000F17B0000F17B0019
:102F86000000000000EFFF0000EFFF0000EFFF0071
:102F9600000000000000000000000000000000002B
:102FA600000000000000000000000000000000001B
:102FB6000000000000000000FFD515000000000022
:102FC60000000000000000000000000000000000FB
:102FD60000000000FFE127000000000000000000E4
:102FE60000000000000000000000000000000000DB
:102FF600FFEF3700000000000000000000000000A6
:10300600000000000000000000000000FFFB470079
:1030160000000000000000000000000000000000AA
:10302600FFDF1F0000000000FFFF69000000000036
:10303600FFFF7F000000000000000000FFE7250002
:1030460000000000FFFF710000000000FFFF93007A
:1030560000000000FFD10F00FFDD1700FFFF4D004D
:10306600FFFF7500FFFF9700FFFF9B00FFFF81003A
:1030760000000000FFE51B00FFFF6500FFFF790071
:10308600FFFF9300FFFF9300000000000000000018
:10309600FFE72100FFFF4300FFFF7900FFFF8D00E0
:1030A600FFFF890000000000000000000000000093
:1030B600FFFF3700FFFF6100FFFF75000000000003
:1030C600000000000000000000000000FFFF3700C5
:1030D600FFFF5B00FFFF6D00000000000000000026
:1030E600000000000000000000000000FFFF51008B
:1030F60000000000000000000000000000000000CA
:103106000000000000000000FFFF47000000000074
:1031160000000000000000000000000000000000A9
:103126000000000000000000000000000000000099
:103136000000000000000000000000000000000089
:103146000000000000000000000000000000000079
:1031560000000000000000000000FF000000FF006B
:103166000000FF000000000000000000000000005A
:103176000000FF000000FF00FFFFFF000000FF004F
:103186000000FF0000000000000000000000FF003B
:103196000000FF00FFFFFF000000FF000000FF002F
:1031A600000000000000FF000000FF000000FF001C
:1031B6000000FF000000FF000000FF000000FF000D
:1031C6000000FF000000FF000000FF000000FF00FD
:1031D6000000FF000000FF000000FF000000FF00ED
:1031E6000000FF000000FF00FFFFFF000000FF00DF
:1031F6000000FF000000FF000000FF000000FF00CD
:103206000000FF000000FF000000FF000000FF00BC
:103216000000FF000000FF000000FF000000FF00AC
:103226000000FF000000FF000000FF000000FF009C
:103236000000FF000000FF000000FF000000FF008C
:103246000000FF000000FF000000FF000000FF007C
:103256000000FF000000FF000000FF000000FF006C
:103266000000FF000000FF00000000000000FF005B
:103276000000FF00FFFFFF000000FF000000FF004E
:1032860000000000000000000000FF000000FF003A
:10329600FFFFFF000000FF000000FF00000000002D
:1032A60000000000000000000000FF000000FF001A
:1032B6000000FF0000000000000000000000000009
:1032C60000000000000000000000000000000000F8
:1032D60000000000000000000000000000000000E8
:1032E60000000000000000000000000000000000D8
:1032F60000000000000000000000000000000000C8
:1033060000000000000000000000000000000000B7
:10331600000000000000000080FFFF0060FFFF00CB
:103326004000FF0000000000000000000000000058
:103336000000000022FFFF005AFFFF006626FF0084
:103346001000000000000000000000000000000067
:1033560064FFFF0016FCFF001E00FF00FF7A7A00E4
:103366000000000000000000000000006EFFFF00EB
:103376000EE8FF000600FF00FF3A360000000000DE
:1033860000000000000000006EFFFF000EE8FF00D6
:103396000400FF00F04C10000000000000000000D8
:1033A60084FFFF0070FFFF0012F8FF000000FF001F
:1033B600FF80140000000000000000001EFFBE0099
:1033C60022FFFF0014FAFF000200FF00F4580C0071
:1033D6000000000000000000000000003EFFFF00AB
:1033E60006D0FF000000FF00EE5A0A0000000000B1
:1033F600000000000000000028FFD60000FFFF00CC
:103406000000EA00FFBA1E000000000000000000F5
:10341600000000003EFFFF00000000000000A800C2
:103426000000000000000000000000000000000096
:103436000000000000000000000054000000000032
:103446000000000000000000000000000000000076
:103456000000000000000000000000000000000066
:103466000000000000000000000000000000000056
:103476000000000000000000000000000000000046
:103486000000000000000000FFFFFF000000000039
:103496000000000000000000000000000000000026
:1034A60000000000FFFFFF00000000000000000019
:1034B6000000000000000000000000000000000006
:1034C60000000000000000000000000000000000F6
:1034D600000000000000000000000000FFFFFF00E9
:1034E60000000000000000000000000000000000D6
:1034F60000000000000000000000000000000000C6
:1035060000000000000000000000000000000000B5
:1035160000000000FFFFFF000000000000000000A8
:1035260000000000FFFFFF00FFFFFF00000000009B
:103536000000000000000000000000000000000085
:10354600FFFFFF0000000000000000000000000078
:103556000000000000000000000000000000000065
:10356600FFFFFF0000000000000000000000000058
:103576000000000000000000000000000000000045
:103586000000000000000000000000000000000035
:103596000000000000000000000000000000000025
:1035A6000000000000000000000000000000000015
:1035B6000000000000000000000000000000000005
:1035C60000000000000000000000000000000000F5
:1035D60000000000000000000000000000000000E5
:1035E60000000000000000000000000000000000D5
:1035F60000000000FFFFFF000000000000000000C8
:1036060000000000000000000000000000000000B4
:10361600FFFFFF00000000000000000000000000A7
:103626000000000000000000000000000000000094
:103636000000000000000000000000000000000084
:103646000000000000000000000000000000000074
:1036560000000000000000000000FF000000FF0066
:103666000000FF000000FF000000FF000000FF0058
:103676000000FF000000FF00000000000000000046
:103686000000000000000000000000000000FF0035
:103696000000FF0000000000000000000000000025
:1036A60000000000000000000000FF000000FF0016
:1036B6000000FF000000FF000000FF000000FF0008
:1036C6000000FF000000FF000000000000000000F6
:1036D60000000000000000000000000000000000E4
:1036E60000000000000000000000000000000000D4
:1036F60000000000000000000000000000000000C4
:1037060000000000000000000000000000000000B3
:103716000000000000000000000000000000FF00A4
:103726000000FF000000FF000000FF000000FF0097
:103736000000FF000000FF000000FF000000000086
:103746000000000000000000000000000000000073
:103756000000FF000000FF00000000000000000065
:103766000000000000000000000000000000FF0054
:103776000000FF000000FF000000FF000000FF0047
:103786000000FF000000FF000000FF000000000036
:103796000000000000000000000000000000000023
:1037A6000000000000000000000000000000000013
:1037B6000000000000000000000000000000000003
:1037C6000000000000FFFF000000000000000000F5
:1037D600000000000000000000FFFF0000FFFF00E7
:1037E60000FFFF00000000000000000000FFFF00D7
:1037F60000FFFF000000000000FFFF0000FFFF00C9
:103806000000000000FFFF0000FFFF0000000000B6
:103816000000000000FFFF0000FFFF0000FFFF00A8
:103826000000000000000000000000000000000092
:1038360000FFFF0000000000000000000000000084
:103846000000000000000000000000000000000072
:1038560000FFFF0000FFFF0000FFFF0000FFFF006A
:1038660000FFFF0000FFFF0000FFFF0000FFFF005A
:10387600000000000000000000FFFF000000000044
:103886000000000000FFFF0000FFFF000000000036
:103896000000000000000000000000000000000022
:1038A60000FFFF0000000000000000000000000014
:1038B6000000000000000000000000000000000002
:1038C60000FFFF0000FFFF0000FFFF0000FFFF00FA
:1038D60000FFFF0000FFFF0000FFFF0000000000E8
:1038E60000000000000000000000000000000000D2
:1038F600000000000000000000FFFF0000000000C4
:1039060000000000000000000000000000000000B1
:103916000000000000FFFF0000FFFF0000FFFF00A7
:1039260000FFFF0000FFFF0000FFFF0000FFFF0099
:1039360000FFFF0000000000000000000000000083
:103946000000000000000000000000000000000071
:103956000000000000000000000000000000000061
:103966000000000000000000000000000000000051
:103976000000000000000000000000000000000041
:103986000000000000000000000000000000000031
:103996000000000000000000000000000000000021
:1039A600FF00FF00FF00FF00FF00FF00FF00FF0019
:1039B600FF00FF00FF00FF00FF00FF00FF00FF0009
:1039C6000000000000000000FF00FF0000000000F3
:1039D6000000000000000000FF00FF0000000000E3
:1039E60000000000000000000000000000000000D1
:1039F60000000000000000000000000000000000C1
:103A060000000000000000000000000000000000B0
:103A1600FF00FF0000000000FF00FF00FF00FF00A6
:103A2600FF00FF00FF00FF00FF00FF000000000096
:103A36000000000000000000000000000000000080
:103A460000000000FF00FF00FF00FF000000000074
:103A5600FF00FF00FF00FF00FF00FF00FF00FF0068
:103A6600FF00FF0000000000000000000000000052
:103A76000000000000000000000000000000000040
:103A8600FF00FF00FF00FF00FF00FF00FF00FF0038
:103A9600FF00FF00FF00FF00FF00FF00FF00FF0028
:103AA60000000000FF00FF00FF00FF00FF00FF0016
:103AB6000000000000000000FF00FF00FF00FF0004
:103AC600FF00FF000000000000000000FF00FF00F4
:103AD600FF00FF00000000000000000000000000E2
:103AE60000000000000000000000000000000000D0
:103AF60000000000000000000000000000000000C0
:103B060000000000000000000000000000000000AF
:103B1600000000000000000000000000000000009F
:103B260000000000000000000000FF000000FF0091
:103B36000000FF000000FF000000FF000000FF0083
:103B46000000FF000000FF00000000000000000071
:103B56000000000000000000000000000000FF0060
:103B66000000FF0000000000000000000000000050
:103B760000000000000000000000FF000000000040
:103B8600000000000000000000000000000000002F
:103B960000000000000000000000FF000000FF0021
:103BA6000000FF000000FF000000FF000000FF0013
:103BB6000000FF000000FF00000000000000000001
:103BC6000000FF00000000000000000000000000F0
:103BD6000000FF000000FF000000FF000000FF00E3
:103BE6000000FF000000FF000000FF0000000000D2
:103BF60000000000000000000000000000000000BF
:103C060000000000000000000000FF000000FF00B0
:103C16000000FF000000FF000000FF000000FF00A2
:103C26000000FF000000FF00000000000000000090
:103C36000000FF000000000000000000000000007F
:103C46000000FF000000000000000000000000006F
:103C5600000000000000000000000000000000005E
:103C6600000000000000000000000000000000004E
:103C760000000000000000000000FF000000FF0040
:103C86000000FF000000FF000000FF000000FF0032
:103C96000000FF000000FF00000000000000000020
:103CA6000000FF0000000000000000000000FF0010
:103CB6000000FF00000000000000000000000000FF
:103CC60000000000000000000000FF0000000000EF
:103CD60000000000000000000000000000000000DE
:103CE60000000000000000000000000000000000CE
:103CF60000000000000000000000000000000000BE
:103D060000000000000000000000000000000000AD
:103D1600000000000000000000000000000000009D
:103D2600000000000000000000000000000000008D
:103D3600000000000000000000000000FF0000007E
:103D4600FF000000FF000000FF000000FF00000071
:103D5600FF000000FF00000000000000000000005F
:103D660000000000FF00000000000000000000004E
:103D760000000000FF000000FF000000FF00000040
:103D8600FF000000FF000000FF000000FF00000031
:103D9600000000000000000000000000000000001D
:103DA600000000000000000000000000FF0000000E
:103DB600FF000000FF000000FF000000FF00000001
:103DC600FF000000FF000000FF00000000000000F0
:103DD60000000000FF0000000000000000000000DE
:103DE600FF000000FF0000000000000000000000CF
:103DF600000000000000000000000000FF000000BE
:103E060000000000000000000000000000000000AC
:103E1600000000000000000000000000FF0000009D
:103E2600FF000000FF000000FF000000FF00000090
:103E3600FF000000FF00000000000000000000007E
:103E4600000000000000000000000000000000006C
:103E5600FF0000000000000000000000000000005D
:103E6600000000000000000000000000FF0000004D
:103E7600000000000000000000000000000000003C
:103E8600000000000000000000000000FF0000002D
:103E9600FF000000FF000000FF000000FF00000020
:103EA600FF000000FF00000000000000000000000E
:103EB60000000000000000000000000000000000FC
:103EC600FF000000000000000000000000000000ED
:103ED600000000000000000000000000FF000000DD
:103EE60000000000000000000000000000000000CC
:103EF60000000000000000000000000000000000BC
:103F0600FF000000FF000000FF000000FF000000AF
:103F1600FF00000000000000FF000000000000009D
:103F2600000000000000000000000000000000008B
:103F3600FF00000000000000FF000000FF0000007E
:103F4600FF000000FF000000FF000000000000006E
:103F5600000000000000000000000000000000005B
:103F6600000000000000000000000000000000004B
:103F7600000000000000000000000000000000003B
:103F8600000000000000000000000000000000002B
:103F9600000000000000000000000000000000001B
:103FA600000000000000000000000000000000000B
:103FB60000000000000000000000000000000000FB
:103FC60000000000000000000000000000000000EB
:103FD600000000000000000000000000FF000000DC
:103FE600FF000000FF000000FF000000FF000000CF
:103FF600FF000000000000000000000000000000BC
:1040060000000000000000000000000000000000AA
:10401600FF0000000000000000000000000000009B
:1040260000000000FF000000FF000000000000008C
:10403600000000000000000000000000000000007A
:10404600FF000000FF00000000000000000000006C
:10405600000000000000000000000000000000005A
:1040660000000000FF000000FF000000FF0000004D
:10407600FF000000FF000000FF000000FF0000003E
:10408600000000000000000000000000000000002A
:10409600000000000000000000000000000000001A
:1040A600FF000000FF000000FF000000FF0000000E
:1040B600FF000000FF000000FF000000FF000000FE
:1040C60000000000000000000000000000000000EA
:1040D60000000000FF000000FF000000FF000000DD
:1040E600FF000000FF000000FF000000FF000000CE
:1040F600FF000000000000000000000000000000BB
:1041060000000000000000000000000000000000A9
:10411600FF000000FF000000FF000000FF0000009D
:10412600FF000000FF000000FF000000FF0000008D
:1041360000000000FF000000FF000000FF0000007C
:104146000000000000000000FF000000FF0000006B
:10415600FF0000000000000000000000FF0000005B
:10416600FF0000000000000000000000000000004A
:104176000000000000000000000000000000000039
:10418600FF000000FF000000FF000000FF0000002D
:10419600FF000000FF000000FF000000000000001C
:1041A6000000000000000000000000000000000009
:1041B60000000000FF0000000000000000000000FA
:1041C60000000000000000000000000000000000E9
:1041D600FF000000000000000000000000000000DA
:1041E60000000000000000000000000000000000C9
:1041F600FF000000FF000000FF000000FF000000BD
:10420600FF000000FF000000FF000000FF000000AC
:104216000000000000000000000000000000000098
:1042260000000000FF00000000000000FF0000008A
:10423600FF000000FF000000FF000000FF0000007C
:104246000000000000000000000000000000000068
:104256000000000000000000000000000000000058
:10426600FF000000FF000000FF000000FF0000004C
:10427600FF00000000000000FF000000000000003A
:104286000000000000000000000000000000000028
:104296000000000000000000000000000000000018
:1042A6000000000000000000000000000000000008
:1042B60000000000000000004003A6010A02890376
:1042C6003D021B022F02AD0363024A02AB0300004C
:1042D60000030001020000010100000000000000D0
:1042E60000000000000000000504000506020401AD
:1042F6000300010001020302010002030405020398
:10430600050402020005020105000401010404047B
:104316000303030305050303000001012010012028
:104326004004100208010201020408040201040804
:104336001020040820100D0A0045696E6761626549
:104346003A00302066C3BC722042696C64736368AD
:1043560069726D207265696E6967656E00312066E7
:10436600C3BC72205261776500322066C3BC7220DE
:104376004170706C6500332066C3BC722053746F45
:104386007000342066C3BC7220506665696C0035C7
:104396002066C3BC72204D6963726F736F667400CA
:1043A600362066C3BC72204D6963726F736F667484
:1043B600333200372066C3BC7220426C7565746F59
:1043C6006F746800382066C3BC72206261747465BD
:1043D600727900392066C3BC722054696D6572001B
:1043E600313020746F2020707573682048656C6CBE
:1043F6006F20576F726C64207468726F75676800FF
:10440600313120746F2073656E64206120636166AC
:10441600652073746174656D656E7400456E7465B0
:10442600722061206D756C7469706C65206F6620F2
:1044360031302E203C3D31303000696E76616C693A
:104446006420696E7075742100446973706C6179BB
:1044560020697320636C65616E656400524157453F
:104466002069636F6E2069732061637469766500E5
:104476004170706C652069636F6E2069732061639B
:10448600746976650053746F702069636F6E206976
:10449600732061637469766500506665696C20698E
:1044A600636F6E20697320616374697665004D6978
:1044B60063726F736F66742069636F6E2069732011
:1044C6006163746976650053746F707073636869AD
:1044D6006C6434352069636F6E2069732061637480
:1044E60069766500426C7565746F6F7468206963E0
:1044F6006F6E20697320616374697665006261740A
:10450600746572792069636F6E20697320616374C4
:104516006976650054696D657220697320616374FC
:104526006976650068656C6C6F20776F726C6420C5
:1045360074657874207363726F6C6C696E6720693A
:1045460073206163746976650063616665207465CE
:104556007874207363726F6C6C696E672069732060
:10456600616374697665004572726F722120706CA2
:10457600656173652070726573732061206E756D59
:104586006265722066726F6D2030202D2031303AC0
:10459600003020746F20636C65617220746865203A
:1045A600646973706C6179003120666F72205261A4
:1045B6007765003220666F72204170706C6500333B
:1045C60020666F722053746F70003420666F7220FD
:1045D600506665696C003520666F72204D6963729E
:1045E6006F736F6674003620666F72204D69637252
:1045F6006F736F66743332003720666F7220426CB9
:104606007565746F6F7468003820666F722062611A
:104616007474657279003920666F722054696D650D
:104626007200313020746F20707573682068656C75
:104636006C6F20776F726C64207468726F75676830
:014646000073
:0C46470005000024F40000007E2A800022
:00000001FF
